{
  "_format": "hh-sol-artifact-1",
  "contractName": "MyNFT",
  "sourceName": "contracts/mintNFT.sol",
  "abi": [
    {
      "inputs": [
        {
          "internalType": "uint256",
          "name": "_maxSupply",
          "type": "uint256"
        }
      ],
      "stateMutability": "nonpayable",
      "type": "constructor"
    },
    {
      "anonymous": false,
      "inputs": [
        {
          "indexed": true,
          "internalType": "address",
          "name": "owner",
          "type": "address"
        },
        {
          "indexed": true,
          "internalType": "address",
          "name": "approved",
          "type": "address"
        },
        {
          "indexed": true,
          "internalType": "uint256",
          "name": "tokenId",
          "type": "uint256"
        }
      ],
      "name": "Approval",
      "type": "event"
    },
    {
      "anonymous": false,
      "inputs": [
        {
          "indexed": true,
          "internalType": "address",
          "name": "owner",
          "type": "address"
        },
        {
          "indexed": true,
          "internalType": "address",
          "name": "operator",
          "type": "address"
        },
        {
          "indexed": false,
          "internalType": "bool",
          "name": "approved",
          "type": "bool"
        }
      ],
      "name": "ApprovalForAll",
      "type": "event"
    },
    {
      "anonymous": false,
      "inputs": [
        {
          "indexed": false,
          "internalType": "address",
          "name": "to",
          "type": "address"
        },
        {
          "indexed": false,
          "internalType": "uint256",
          "name": "tokenId",
          "type": "uint256"
        },
        {
          "indexed": false,
          "internalType": "string",
          "name": "metadataURI",
          "type": "string"
        }
      ],
      "name": "NFTMinted",
      "type": "event"
    },
    {
      "anonymous": false,
      "inputs": [
        {
          "indexed": true,
          "internalType": "address",
          "name": "previousOwner",
          "type": "address"
        },
        {
          "indexed": true,
          "internalType": "address",
          "name": "newOwner",
          "type": "address"
        }
      ],
      "name": "OwnershipTransferred",
      "type": "event"
    },
    {
      "anonymous": false,
      "inputs": [
        {
          "indexed": true,
          "internalType": "address",
          "name": "from",
          "type": "address"
        },
        {
          "indexed": true,
          "internalType": "address",
          "name": "to",
          "type": "address"
        },
        {
          "indexed": true,
          "internalType": "uint256",
          "name": "tokenId",
          "type": "uint256"
        }
      ],
      "name": "Transfer",
      "type": "event"
    },
    {
      "inputs": [
        {
          "internalType": "address",
          "name": "to",
          "type": "address"
        },
        {
          "internalType": "uint256",
          "name": "tokenId",
          "type": "uint256"
        }
      ],
      "name": "approve",
      "outputs": [],
      "stateMutability": "nonpayable",
      "type": "function"
    },
    {
      "inputs": [
        {
          "internalType": "address",
          "name": "owner",
          "type": "address"
        }
      ],
      "name": "balanceOf",
      "outputs": [
        {
          "internalType": "uint256",
          "name": "",
          "type": "uint256"
        }
      ],
      "stateMutability": "view",
      "type": "function"
    },
    {
      "inputs": [
        {
          "internalType": "uint256",
          "name": "tokenId",
          "type": "uint256"
        }
      ],
      "name": "getApproved",
      "outputs": [
        {
          "internalType": "address",
          "name": "",
          "type": "address"
        }
      ],
      "stateMutability": "view",
      "type": "function"
    },
    {
      "inputs": [
        {
          "internalType": "address",
          "name": "owner",
          "type": "address"
        },
        {
          "internalType": "address",
          "name": "operator",
          "type": "address"
        }
      ],
      "name": "isApprovedForAll",
      "outputs": [
        {
          "internalType": "bool",
          "name": "",
          "type": "bool"
        }
      ],
      "stateMutability": "view",
      "type": "function"
    },
    {
      "inputs": [],
      "name": "maxSupply",
      "outputs": [
        {
          "internalType": "uint256",
          "name": "",
          "type": "uint256"
        }
      ],
      "stateMutability": "view",
      "type": "function"
    },
    {
      "inputs": [
        {
          "internalType": "string",
          "name": "metadataURI",
          "type": "string"
        }
      ],
      "name": "mintNFT",
      "outputs": [],
      "stateMutability": "nonpayable",
      "type": "function"
    },
    {
      "inputs": [],
      "name": "name",
      "outputs": [
        {
          "internalType": "string",
          "name": "",
          "type": "string"
        }
      ],
      "stateMutability": "view",
      "type": "function"
    },
    {
      "inputs": [],
      "name": "owner",
      "outputs": [
        {
          "internalType": "address",
          "name": "",
          "type": "address"
        }
      ],
      "stateMutability": "view",
      "type": "function"
    },
    {
      "inputs": [
        {
          "internalType": "uint256",
          "name": "tokenId",
          "type": "uint256"
        }
      ],
      "name": "ownerOf",
      "outputs": [
        {
          "internalType": "address",
          "name": "",
          "type": "address"
        }
      ],
      "stateMutability": "view",
      "type": "function"
    },
    {
      "inputs": [],
      "name": "renounceOwnership",
      "outputs": [],
      "stateMutability": "nonpayable",
      "type": "function"
    },
    {
      "inputs": [
        {
          "internalType": "address",
          "name": "from",
          "type": "address"
        },
        {
          "internalType": "address",
          "name": "to",
          "type": "address"
        },
        {
          "internalType": "uint256",
          "name": "tokenId",
          "type": "uint256"
        }
      ],
      "name": "safeTransferFrom",
      "outputs": [],
      "stateMutability": "nonpayable",
      "type": "function"
    },
    {
      "inputs": [
        {
          "internalType": "address",
          "name": "from",
          "type": "address"
        },
        {
          "internalType": "address",
          "name": "to",
          "type": "address"
        },
        {
          "internalType": "uint256",
          "name": "tokenId",
          "type": "uint256"
        },
        {
          "internalType": "bytes",
          "name": "data",
          "type": "bytes"
        }
      ],
      "name": "safeTransferFrom",
      "outputs": [],
      "stateMutability": "nonpayable",
      "type": "function"
    },
    {
      "inputs": [
        {
          "internalType": "address",
          "name": "operator",
          "type": "address"
        },
        {
          "internalType": "bool",
          "name": "approved",
          "type": "bool"
        }
      ],
      "name": "setApprovalForAll",
      "outputs": [],
      "stateMutability": "nonpayable",
      "type": "function"
    },
    {
      "inputs": [
        {
          "internalType": "bytes4",
          "name": "interfaceId",
          "type": "bytes4"
        }
      ],
      "name": "supportsInterface",
      "outputs": [
        {
          "internalType": "bool",
          "name": "",
          "type": "bool"
        }
      ],
      "stateMutability": "view",
      "type": "function"
    },
    {
      "inputs": [],
      "name": "symbol",
      "outputs": [
        {
          "internalType": "string",
          "name": "",
          "type": "string"
        }
      ],
      "stateMutability": "view",
      "type": "function"
    },
    {
      "inputs": [],
      "name": "tokenCounter",
      "outputs": [
        {
          "internalType": "uint256",
          "name": "",
          "type": "uint256"
        }
      ],
      "stateMutability": "view",
      "type": "function"
    },
    {
      "inputs": [
        {
          "internalType": "uint256",
          "name": "tokenId",
          "type": "uint256"
        }
      ],
      "name": "tokenURI",
      "outputs": [
        {
          "internalType": "string",
          "name": "",
          "type": "string"
        }
      ],
      "stateMutability": "view",
      "type": "function"
    },
    {
      "inputs": [
        {
          "internalType": "address",
          "name": "from",
          "type": "address"
        },
        {
          "internalType": "address",
          "name": "to",
          "type": "address"
        },
        {
          "internalType": "uint256",
          "name": "tokenId",
          "type": "uint256"
        }
      ],
      "name": "transferFrom",
      "outputs": [],
      "stateMutability": "nonpayable",
      "type": "function"
    },
    {
      "inputs": [
        {
          "internalType": "address",
          "name": "newOwner",
          "type": "address"
        }
      ],
      "name": "transferOwnership",
      "outputs": [],
      "stateMutability": "nonpayable",
      "type": "function"
    }
  ],
  "bytecode": "0x60806040523480156200001157600080fd5b50604051620037df380380620037df83398181016040528101906200003791906200020d565b6040518060400160405280600581526020017f4d794e46540000000000000000000000000000000000000000000000000000008152506040518060400160405280600481526020017f4d4e4654000000000000000000000000000000000000000000000000000000008152508160009081620000b49190620004af565b508060019081620000c69190620004af565b505050620000e9620000dd620000ff60201b60201c565b6200010760201b60201c565b6000600881905550806009819055505062000596565b600033905090565b6000600760009054906101000a900473ffffffffffffffffffffffffffffffffffffffff16905081600760006101000a81548173ffffffffffffffffffffffffffffffffffffffff021916908373ffffffffffffffffffffffffffffffffffffffff1602179055508173ffffffffffffffffffffffffffffffffffffffff168173ffffffffffffffffffffffffffffffffffffffff167f8be0079c531659141344cd1fd0a4f28419497f9722a3daafe3b4186f6b6457e060405160405180910390a35050565b600080fd5b6000819050919050565b620001e781620001d2565b8114620001f357600080fd5b50565b6000815190506200020781620001dc565b92915050565b600060208284031215620002265762000225620001cd565b5b60006200023684828501620001f6565b91505092915050565b600081519050919050565b7f4e487b7100000000000000000000000000000000000000000000000000000000600052604160045260246000fd5b7f4e487b7100000000000000000000000000000000000000000000000000000000600052602260045260246000fd5b60006002820490506001821680620002c157607f821691505b602082108103620002d757620002d662000279565b5b50919050565b60008190508160005260206000209050919050565b60006020601f8301049050919050565b600082821b905092915050565b600060088302620003417fffffffffffffffffffffffffffffffffffffffffffffffffffffffffffffffff8262000302565b6200034d868362000302565b95508019841693508086168417925050509392505050565b6000819050919050565b6000620003906200038a6200038484620001d2565b62000365565b620001d2565b9050919050565b6000819050919050565b620003ac836200036f565b620003c4620003bb8262000397565b8484546200030f565b825550505050565b600090565b620003db620003cc565b620003e8818484620003a1565b505050565b5b81811015620004105762000404600082620003d1565b600181019050620003ee565b5050565b601f8211156200045f576200042981620002dd565b6200043484620002f2565b8101602085101562000444578190505b6200045c6200045385620002f2565b830182620003ed565b50505b505050565b600082821c905092915050565b6000620004846000198460080262000464565b1980831691505092915050565b60006200049f838362000471565b9150826002028217905092915050565b620004ba826200023f565b67ffffffffffffffff811115620004d657620004d56200024a565b5b620004e28254620002a8565b620004ef82828562000414565b600060209050601f83116001811462000527576000841562000512578287015190505b6200051e858262000491565b8655506200058e565b601f1984166200053786620002dd565b60005b8281101562000561578489015182556001820191506020850194506020810190506200053a565b868310156200058157848901516200057d601f89168262000471565b8355505b6001600288020188555050505b505050505050565b61323980620005a66000396000f3fe608060405234801561001057600080fd5b50600436106101215760003560e01c80638da5cb5b116100ad578063d082e38111610071578063d082e38114610306578063d5abeb0114610324578063e985e9c514610342578063f2fde38b14610372578063fb37e8831461038e57610121565b80638da5cb5b1461026257806395d89b4114610280578063a22cb4651461029e578063b88d4fde146102ba578063c87b56dd146102d657610121565b806323b872dd116100f457806323b872dd146101c057806342842e0e146101dc5780636352211e146101f857806370a0823114610228578063715018a61461025857610121565b806301ffc9a71461012657806306fdde0314610156578063081812fc14610174578063095ea7b3146101a4575b600080fd5b610140600480360381019061013b9190611e48565b6103aa565b60405161014d9190611e90565b60405180910390f35b61015e61048c565b60405161016b9190611f3b565b60405180910390f35b61018e60048036038101906101899190611f93565b61051e565b60405161019b9190612001565b60405180910390f35b6101be60048036038101906101b99190612048565b610564565b005b6101da60048036038101906101d59190612088565b61067b565b005b6101f660048036038101906101f19190612088565b6106db565b005b610212600480360381019061020d9190611f93565b6106fb565b60405161021f9190612001565b60405180910390f35b610242600480360381019061023d91906120db565b61070d565b60405161024f9190612117565b60405180910390f35b6102606107c4565b005b61026a6107d8565b6040516102779190612001565b60405180910390f35b610288610802565b6040516102959190611f3b565b60405180910390f35b6102b860048036038101906102b3919061215e565b610894565b005b6102d460048036038101906102cf91906122d3565b6108aa565b005b6102f060048036038101906102eb9190611f93565b61090c565b6040516102fd9190611f3b565b60405180910390f35b61030e61091e565b60405161031b9190612117565b60405180910390f35b61032c610924565b6040516103399190612117565b60405180910390f35b61035c60048036038101906103579190612356565b61092a565b6040516103699190611e90565b60405180910390f35b61038c600480360381019061038791906120db565b6109be565b005b6103a860048036038101906103a39190612437565b610a41565b005b60007f80ac58cd000000000000000000000000000000000000000000000000000000007bffffffffffffffffffffffffffffffffffffffffffffffffffffffff1916827bffffffffffffffffffffffffffffffffffffffffffffffffffffffff1916148061047557507f5b5e139f000000000000000000000000000000000000000000000000000000007bffffffffffffffffffffffffffffffffffffffffffffffffffffffff1916827bffffffffffffffffffffffffffffffffffffffffffffffffffffffff1916145b80610485575061048482610b3d565b5b9050919050565b60606000805461049b906124af565b80601f01602080910402602001604051908101604052809291908181526020018280546104c7906124af565b80156105145780601f106104e957610100808354040283529160200191610514565b820191906000526020600020905b8154815290600101906020018083116104f757829003601f168201915b5050505050905090565b600061052982610ba7565b6004600083815260200190815260200160002060009054906101000a900473ffffffffffffffffffffffffffffffffffffffff169050919050565b600061056f82610bf2565b90508073ffffffffffffffffffffffffffffffffffffffff168373ffffffffffffffffffffffffffffffffffffffff16036105df576040517f08c379a00000000000000000000000000000000000000000000000000000000081526004016105d690612552565b60405180910390fd5b8073ffffffffffffffffffffffffffffffffffffffff166105fe610c78565b73ffffffffffffffffffffffffffffffffffffffff16148061062d575061062c81610627610c78565b61092a565b5b61066c576040517f08c379a0000000000000000000000000000000000000000000000000000000008152600401610663906125e4565b60405180910390fd5b6106768383610c80565b505050565b61068c610686610c78565b82610d39565b6106cb576040517f08c379a00000000000000000000000000000000000000000000000000000000081526004016106c290612676565b60405180910390fd5b6106d6838383610dce565b505050565b6106f6838383604051806020016040528060008152506108aa565b505050565b600061070682610bf2565b9050919050565b60008073ffffffffffffffffffffffffffffffffffffffff168273ffffffffffffffffffffffffffffffffffffffff160361077d576040517f08c379a000000000000000000000000000000000000000000000000000000000815260040161077490612708565b60405180910390fd5b600360008373ffffffffffffffffffffffffffffffffffffffff1673ffffffffffffffffffffffffffffffffffffffff168152602001908152602001600020549050919050565b6107cc6110c7565b6107d66000611145565b565b6000600760009054906101000a900473ffffffffffffffffffffffffffffffffffffffff16905090565b606060018054610811906124af565b80601f016020809104026020016040519081016040528092919081815260200182805461083d906124af565b801561088a5780601f1061085f5761010080835404028352916020019161088a565b820191906000526020600020905b81548152906001019060200180831161086d57829003601f168201915b5050505050905090565b6108a661089f610c78565b838361120b565b5050565b6108bb6108b5610c78565b83610d39565b6108fa576040517f08c379a00000000000000000000000000000000000000000000000000000000081526004016108f190612676565b60405180910390fd5b61090684848484611377565b50505050565b6060610917826113d3565b9050919050565b60085481565b60095481565b6000600560008473ffffffffffffffffffffffffffffffffffffffff1673ffffffffffffffffffffffffffffffffffffffff16815260200190815260200160002060008373ffffffffffffffffffffffffffffffffffffffff1673ffffffffffffffffffffffffffffffffffffffff16815260200190815260200160002060009054906101000a900460ff16905092915050565b6109c66110c7565b600073ffffffffffffffffffffffffffffffffffffffff168173ffffffffffffffffffffffffffffffffffffffff1603610a35576040517f08c379a0000000000000000000000000000000000000000000000000000000008152600401610a2c9061279a565b60405180910390fd5b610a3e81611145565b50565b6000815111610a85576040517f08c379a0000000000000000000000000000000000000000000000000000000008152600401610a7c90612806565b60405180910390fd5b60095460085410610acb576040517f08c379a0000000000000000000000000000000000000000000000000000000008152600401610ac290612872565b60405180910390fd5b60006008549050610adc33826114e5565b610ae68183611503565b60086000815480929190610af9906128c1565b91905055507fd35bb95e09c04b219e35047ce7b7b300e3384264ef84a40456943dbc0fc17c14338284604051610b3193929190612909565b60405180910390a15050565b60007f01ffc9a7000000000000000000000000000000000000000000000000000000007bffffffffffffffffffffffffffffffffffffffffffffffffffffffff1916827bffffffffffffffffffffffffffffffffffffffffffffffffffffffff1916149050919050565b610bb081611570565b610bef576040517f08c379a0000000000000000000000000000000000000000000000000000000008152600401610be690612993565b60405180910390fd5b50565b600080610bfe836115b1565b9050600073ffffffffffffffffffffffffffffffffffffffff168173ffffffffffffffffffffffffffffffffffffffff1603610c6f576040517f08c379a0000000000000000000000000000000000000000000000000000000008152600401610c6690612993565b60405180910390fd5b80915050919050565b600033905090565b816004600083815260200190815260200160002060006101000a81548173ffffffffffffffffffffffffffffffffffffffff021916908373ffffffffffffffffffffffffffffffffffffffff160217905550808273ffffffffffffffffffffffffffffffffffffffff16610cf383610bf2565b73ffffffffffffffffffffffffffffffffffffffff167f8c5be1e5ebec7d5bd14f71427d1e84f3dd0314c0f7b2291e5b200ac8c7c3b92560405160405180910390a45050565b600080610d4583610bf2565b90508073ffffffffffffffffffffffffffffffffffffffff168473ffffffffffffffffffffffffffffffffffffffff161480610d875750610d86818561092a565b5b80610dc557508373ffffffffffffffffffffffffffffffffffffffff16610dad8461051e565b73ffffffffffffffffffffffffffffffffffffffff16145b91505092915050565b8273ffffffffffffffffffffffffffffffffffffffff16610dee82610bf2565b73ffffffffffffffffffffffffffffffffffffffff1614610e44576040517f08c379a0000000000000000000000000000000000000000000000000000000008152600401610e3b90612a25565b60405180910390fd5b600073ffffffffffffffffffffffffffffffffffffffff168273ffffffffffffffffffffffffffffffffffffffff1603610eb3576040517f08c379a0000000000000000000000000000000000000000000000000000000008152600401610eaa90612ab7565b60405180910390fd5b610ec083838360016115ee565b8273ffffffffffffffffffffffffffffffffffffffff16610ee082610bf2565b73ffffffffffffffffffffffffffffffffffffffff1614610f36576040517f08c379a0000000000000000000000000000000000000000000000000000000008152600401610f2d90612a25565b60405180910390fd5b6004600082815260200190815260200160002060006101000a81549073ffffffffffffffffffffffffffffffffffffffff02191690556001600360008573ffffffffffffffffffffffffffffffffffffffff1673ffffffffffffffffffffffffffffffffffffffff168152602001908152602001600020600082825403925050819055506001600360008473ffffffffffffffffffffffffffffffffffffffff1673ffffffffffffffffffffffffffffffffffffffff16815260200190815260200160002060008282540192505081905550816002600083815260200190815260200160002060006101000a81548173ffffffffffffffffffffffffffffffffffffffff021916908373ffffffffffffffffffffffffffffffffffffffff160217905550808273ffffffffffffffffffffffffffffffffffffffff168473ffffffffffffffffffffffffffffffffffffffff167fddf252ad1be2c89b69c2b068fc378daa952ba7f163c4a11628f55a4df523b3ef60405160405180910390a46110c28383836001611714565b505050565b6110cf610c78565b73ffffffffffffffffffffffffffffffffffffffff166110ed6107d8565b73ffffffffffffffffffffffffffffffffffffffff1614611143576040517f08c379a000000000000000000000000000000000000000000000000000000000815260040161113a90612b23565b60405180910390fd5b565b6000600760009054906101000a900473ffffffffffffffffffffffffffffffffffffffff16905081600760006101000a81548173ffffffffffffffffffffffffffffffffffffffff021916908373ffffffffffffffffffffffffffffffffffffffff1602179055508173ffffffffffffffffffffffffffffffffffffffff168173ffffffffffffffffffffffffffffffffffffffff167f8be0079c531659141344cd1fd0a4f28419497f9722a3daafe3b4186f6b6457e060405160405180910390a35050565b8173ffffffffffffffffffffffffffffffffffffffff168373ffffffffffffffffffffffffffffffffffffffff1603611279576040517f08c379a000000000000000000000000000000000000000000000000000000000815260040161127090612b8f565b60405180910390fd5b80600560008573ffffffffffffffffffffffffffffffffffffffff1673ffffffffffffffffffffffffffffffffffffffff16815260200190815260200160002060008473ffffffffffffffffffffffffffffffffffffffff1673ffffffffffffffffffffffffffffffffffffffff16815260200190815260200160002060006101000a81548160ff0219169083151502179055508173ffffffffffffffffffffffffffffffffffffffff168373ffffffffffffffffffffffffffffffffffffffff167f17307eab39ab6107e8899845ad3d59bd9653f200f220920489ca2b5937696c318360405161136a9190611e90565b60405180910390a3505050565b611382848484610dce565b61138e8484848461171a565b6113cd576040517f08c379a00000000000000000000000000000000000000000000000000000000081526004016113c490612c21565b60405180910390fd5b50505050565b60606113de82610ba7565b60006006600084815260200190815260200160002080546113fe906124af565b80601f016020809104026020016040519081016040528092919081815260200182805461142a906124af565b80156114775780601f1061144c57610100808354040283529160200191611477565b820191906000526020600020905b81548152906001019060200180831161145a57829003601f168201915b5050505050905060006114886118a1565b9050600081510361149d5781925050506114e0565b6000825111156114d25780826040516020016114ba929190612c7d565b604051602081830303815290604052925050506114e0565b6114db846118b8565b925050505b919050565b6114ff828260405180602001604052806000815250611920565b5050565b61150c82611570565b61154b576040517f08c379a000000000000000000000000000000000000000000000000000000000815260040161154290612d13565b60405180910390fd5b8060066000848152602001908152602001600020908161156b9190612edf565b505050565b60008073ffffffffffffffffffffffffffffffffffffffff16611592836115b1565b73ffffffffffffffffffffffffffffffffffffffff1614159050919050565b60006002600083815260200190815260200160002060009054906101000a900473ffffffffffffffffffffffffffffffffffffffff169050919050565b600181111561170e57600073ffffffffffffffffffffffffffffffffffffffff168473ffffffffffffffffffffffffffffffffffffffff16146116825780600360008673ffffffffffffffffffffffffffffffffffffffff1673ffffffffffffffffffffffffffffffffffffffff168152602001908152602001600020600082825461167a9190612fb1565b925050819055505b600073ffffffffffffffffffffffffffffffffffffffff168373ffffffffffffffffffffffffffffffffffffffff161461170d5780600360008573ffffffffffffffffffffffffffffffffffffffff1673ffffffffffffffffffffffffffffffffffffffff16815260200190815260200160002060008282546117059190612fe5565b925050819055505b5b50505050565b50505050565b600061173b8473ffffffffffffffffffffffffffffffffffffffff1661197b565b15611894578373ffffffffffffffffffffffffffffffffffffffff1663150b7a02611764610c78565b8786866040518563ffffffff1660e01b8152600401611786949392919061306e565b6020604051808303816000875af19250505080156117c257506040513d601f19601f820116820180604052508101906117bf91906130cf565b60015b611844573d80600081146117f2576040519150601f19603f3d011682016040523d82523d6000602084013e6117f7565b606091505b50600081510361183c576040517f08c379a000000000000000000000000000000000000000000000000000000000815260040161183390612c21565b60405180910390fd5b805181602001fd5b63150b7a0260e01b7bffffffffffffffffffffffffffffffffffffffffffffffffffffffff1916817bffffffffffffffffffffffffffffffffffffffffffffffffffffffff191614915050611899565b600190505b949350505050565b606060405180602001604052806000815250905090565b60606118c382610ba7565b60006118cd6118a1565b905060008151116118ed5760405180602001604052806000815250611918565b806118f78461199e565b604051602001611908929190612c7d565b6040516020818303038152906040525b915050919050565b61192a8383611a6c565b611937600084848461171a565b611976576040517f08c379a000000000000000000000000000000000000000000000000000000000815260040161196d90612c21565b60405180910390fd5b505050565b6000808273ffffffffffffffffffffffffffffffffffffffff163b119050919050565b6060600060016119ad84611c89565b01905060008167ffffffffffffffff8111156119cc576119cb6121a8565b5b6040519080825280601f01601f1916602001820160405280156119fe5781602001600182028036833780820191505090505b509050600082602001820190505b600115611a61578080600190039150507f3031323334353637383961626364656600000000000000000000000000000000600a86061a8153600a8581611a5557611a546130fc565b5b04945060008503611a0c575b819350505050919050565b600073ffffffffffffffffffffffffffffffffffffffff168273ffffffffffffffffffffffffffffffffffffffff1603611adb576040517f08c379a0000000000000000000000000000000000000000000000000000000008152600401611ad290613177565b60405180910390fd5b611ae481611570565b15611b24576040517f08c379a0000000000000000000000000000000000000000000000000000000008152600401611b1b906131e3565b60405180910390fd5b611b326000838360016115ee565b611b3b81611570565b15611b7b576040517f08c379a0000000000000000000000000000000000000000000000000000000008152600401611b72906131e3565b60405180910390fd5b6001600360008473ffffffffffffffffffffffffffffffffffffffff1673ffffffffffffffffffffffffffffffffffffffff16815260200190815260200160002060008282540192505081905550816002600083815260200190815260200160002060006101000a81548173ffffffffffffffffffffffffffffffffffffffff021916908373ffffffffffffffffffffffffffffffffffffffff160217905550808273ffffffffffffffffffffffffffffffffffffffff16600073ffffffffffffffffffffffffffffffffffffffff167fddf252ad1be2c89b69c2b068fc378daa952ba7f163c4a11628f55a4df523b3ef60405160405180910390a4611c85600083836001611714565b5050565b600080600090507a184f03e93ff9f4daa797ed6e38ed64bf6a1f0100000000000000008310611ce7577a184f03e93ff9f4daa797ed6e38ed64bf6a1f0100000000000000008381611cdd57611cdc6130fc565b5b0492506040810190505b6d04ee2d6d415b85acef81000000008310611d24576d04ee2d6d415b85acef81000000008381611d1a57611d196130fc565b5b0492506020810190505b662386f26fc100008310611d5357662386f26fc100008381611d4957611d486130fc565b5b0492506010810190505b6305f5e1008310611d7c576305f5e1008381611d7257611d716130fc565b5b0492506008810190505b6127108310611da1576127108381611d9757611d966130fc565b5b0492506004810190505b60648310611dc45760648381611dba57611db96130fc565b5b0492506002810190505b600a8310611dd3576001810190505b80915050919050565b6000604051905090565b600080fd5b600080fd5b60007fffffffff0000000000000000000000000000000000000000000000000000000082169050919050565b611e2581611df0565b8114611e3057600080fd5b50565b600081359050611e4281611e1c565b92915050565b600060208284031215611e5e57611e5d611de6565b5b6000611e6c84828501611e33565b91505092915050565b60008115159050919050565b611e8a81611e75565b82525050565b6000602082019050611ea56000830184611e81565b92915050565b600081519050919050565b600082825260208201905092915050565b60005b83811015611ee5578082015181840152602081019050611eca565b60008484015250505050565b6000601f19601f8301169050919050565b6000611f0d82611eab565b611f178185611eb6565b9350611f27818560208601611ec7565b611f3081611ef1565b840191505092915050565b60006020820190508181036000830152611f558184611f02565b905092915050565b6000819050919050565b611f7081611f5d565b8114611f7b57600080fd5b50565b600081359050611f8d81611f67565b92915050565b600060208284031215611fa957611fa8611de6565b5b6000611fb784828501611f7e565b91505092915050565b600073ffffffffffffffffffffffffffffffffffffffff82169050919050565b6000611feb82611fc0565b9050919050565b611ffb81611fe0565b82525050565b60006020820190506120166000830184611ff2565b92915050565b61202581611fe0565b811461203057600080fd5b50565b6000813590506120428161201c565b92915050565b6000806040838503121561205f5761205e611de6565b5b600061206d85828601612033565b925050602061207e85828601611f7e565b9150509250929050565b6000806000606084860312156120a1576120a0611de6565b5b60006120af86828701612033565b93505060206120c086828701612033565b92505060406120d186828701611f7e565b9150509250925092565b6000602082840312156120f1576120f0611de6565b5b60006120ff84828501612033565b91505092915050565b61211181611f5d565b82525050565b600060208201905061212c6000830184612108565b92915050565b61213b81611e75565b811461214657600080fd5b50565b60008135905061215881612132565b92915050565b6000806040838503121561217557612174611de6565b5b600061218385828601612033565b925050602061219485828601612149565b9150509250929050565b600080fd5b600080fd5b7f4e487b7100000000000000000000000000000000000000000000000000000000600052604160045260246000fd5b6121e082611ef1565b810181811067ffffffffffffffff821117156121ff576121fe6121a8565b5b80604052505050565b6000612212611ddc565b905061221e82826121d7565b919050565b600067ffffffffffffffff82111561223e5761223d6121a8565b5b61224782611ef1565b9050602081019050919050565b82818337600083830152505050565b600061227661227184612223565b612208565b905082815260208101848484011115612292576122916121a3565b5b61229d848285612254565b509392505050565b600082601f8301126122ba576122b961219e565b5b81356122ca848260208601612263565b91505092915050565b600080600080608085870312156122ed576122ec611de6565b5b60006122fb87828801612033565b945050602061230c87828801612033565b935050604061231d87828801611f7e565b925050606085013567ffffffffffffffff81111561233e5761233d611deb565b5b61234a878288016122a5565b91505092959194509250565b6000806040838503121561236d5761236c611de6565b5b600061237b85828601612033565b925050602061238c85828601612033565b9150509250929050565b600067ffffffffffffffff8211156123b1576123b06121a8565b5b6123ba82611ef1565b9050602081019050919050565b60006123da6123d584612396565b612208565b9050828152602081018484840111156123f6576123f56121a3565b5b612401848285612254565b509392505050565b600082601f83011261241e5761241d61219e565b5b813561242e8482602086016123c7565b91505092915050565b60006020828403121561244d5761244c611de6565b5b600082013567ffffffffffffffff81111561246b5761246a611deb565b5b61247784828501612409565b91505092915050565b7f4e487b7100000000000000000000000000000000000000000000000000000000600052602260045260246000fd5b600060028204905060018216806124c757607f821691505b6020821081036124da576124d9612480565b5b50919050565b7f4552433732313a20617070726f76616c20746f2063757272656e74206f776e6560008201527f7200000000000000000000000000000000000000000000000000000000000000602082015250565b600061253c602183611eb6565b9150612547826124e0565b604082019050919050565b6000602082019050818103600083015261256b8161252f565b9050919050565b7f4552433732313a20617070726f76652063616c6c6572206973206e6f7420746f60008201527f6b656e206f776e6572206f7220617070726f76656420666f7220616c6c000000602082015250565b60006125ce603d83611eb6565b91506125d982612572565b604082019050919050565b600060208201905081810360008301526125fd816125c1565b9050919050565b7f4552433732313a2063616c6c6572206973206e6f7420746f6b656e206f776e6560008201527f72206f7220617070726f76656400000000000000000000000000000000000000602082015250565b6000612660602d83611eb6565b915061266b82612604565b604082019050919050565b6000602082019050818103600083015261268f81612653565b9050919050565b7f4552433732313a2061646472657373207a65726f206973206e6f74206120766160008201527f6c6964206f776e65720000000000000000000000000000000000000000000000602082015250565b60006126f2602983611eb6565b91506126fd82612696565b604082019050919050565b60006020820190508181036000830152612721816126e5565b9050919050565b7f4f776e61626c653a206e6577206f776e657220697320746865207a65726f206160008201527f6464726573730000000000000000000000000000000000000000000000000000602082015250565b6000612784602683611eb6565b915061278f82612728565b604082019050919050565b600060208201905081810360008301526127b381612777565b9050919050565b7f546f6b656e205552492063616e6e6f7420626520656d70747900000000000000600082015250565b60006127f0601983611eb6565b91506127fb826127ba565b602082019050919050565b6000602082019050818103600083015261281f816127e3565b9050919050565b7f4d6178204e465420737570706c79207265616368656400000000000000000000600082015250565b600061285c601683611eb6565b915061286782612826565b602082019050919050565b6000602082019050818103600083015261288b8161284f565b9050919050565b7f4e487b7100000000000000000000000000000000000000000000000000000000600052601160045260246000fd5b60006128cc82611f5d565b91507fffffffffffffffffffffffffffffffffffffffffffffffffffffffffffffffff82036128fe576128fd612892565b5b600182019050919050565b600060608201905061291e6000830186611ff2565b61292b6020830185612108565b818103604083015261293d8184611f02565b9050949350505050565b7f4552433732313a20696e76616c696420746f6b656e2049440000000000000000600082015250565b600061297d601883611eb6565b915061298882612947565b602082019050919050565b600060208201905081810360008301526129ac81612970565b9050919050565b7f4552433732313a207472616e736665722066726f6d20696e636f72726563742060008201527f6f776e6572000000000000000000000000000000000000000000000000000000602082015250565b6000612a0f602583611eb6565b9150612a1a826129b3565b604082019050919050565b60006020820190508181036000830152612a3e81612a02565b9050919050565b7f4552433732313a207472616e7366657220746f20746865207a65726f2061646460008201527f7265737300000000000000000000000000000000000000000000000000000000602082015250565b6000612aa1602483611eb6565b9150612aac82612a45565b604082019050919050565b60006020820190508181036000830152612ad081612a94565b9050919050565b7f4f776e61626c653a2063616c6c6572206973206e6f7420746865206f776e6572600082015250565b6000612b0d602083611eb6565b9150612b1882612ad7565b602082019050919050565b60006020820190508181036000830152612b3c81612b00565b9050919050565b7f4552433732313a20617070726f766520746f2063616c6c657200000000000000600082015250565b6000612b79601983611eb6565b9150612b8482612b43565b602082019050919050565b60006020820190508181036000830152612ba881612b6c565b9050919050565b7f4552433732313a207472616e7366657220746f206e6f6e20455243373231526560008201527f63656976657220696d706c656d656e7465720000000000000000000000000000602082015250565b6000612c0b603283611eb6565b9150612c1682612baf565b604082019050919050565b60006020820190508181036000830152612c3a81612bfe565b9050919050565b600081905092915050565b6000612c5782611eab565b612c618185612c41565b9350612c71818560208601611ec7565b80840191505092915050565b6000612c898285612c4c565b9150612c958284612c4c565b91508190509392505050565b7f45524337323155524953746f726167653a2055524920736574206f66206e6f6e60008201527f6578697374656e7420746f6b656e000000000000000000000000000000000000602082015250565b6000612cfd602e83611eb6565b9150612d0882612ca1565b604082019050919050565b60006020820190508181036000830152612d2c81612cf0565b9050919050565b60008190508160005260206000209050919050565b60006020601f8301049050919050565b600082821b905092915050565b600060088302612d957fffffffffffffffffffffffffffffffffffffffffffffffffffffffffffffffff82612d58565b612d9f8683612d58565b95508019841693508086168417925050509392505050565b6000819050919050565b6000612ddc612dd7612dd284611f5d565b612db7565b611f5d565b9050919050565b6000819050919050565b612df683612dc1565b612e0a612e0282612de3565b848454612d65565b825550505050565b600090565b612e1f612e12565b612e2a818484612ded565b505050565b5b81811015612e4e57612e43600082612e17565b600181019050612e30565b5050565b601f821115612e9357612e6481612d33565b612e6d84612d48565b81016020851015612e7c578190505b612e90612e8885612d48565b830182612e2f565b50505b505050565b600082821c905092915050565b6000612eb660001984600802612e98565b1980831691505092915050565b6000612ecf8383612ea5565b9150826002028217905092915050565b612ee882611eab565b67ffffffffffffffff811115612f0157612f006121a8565b5b612f0b82546124af565b612f16828285612e52565b600060209050601f831160018114612f495760008415612f37578287015190505b612f418582612ec3565b865550612fa9565b601f198416612f5786612d33565b60005b82811015612f7f57848901518255600182019150602085019450602081019050612f5a565b86831015612f9c5784890151612f98601f891682612ea5565b8355505b6001600288020188555050505b505050505050565b6000612fbc82611f5d565b9150612fc783611f5d565b9250828203905081811115612fdf57612fde612892565b5b92915050565b6000612ff082611f5d565b9150612ffb83611f5d565b925082820190508082111561301357613012612892565b5b92915050565b600081519050919050565b600082825260208201905092915050565b600061304082613019565b61304a8185613024565b935061305a818560208601611ec7565b61306381611ef1565b840191505092915050565b60006080820190506130836000830187611ff2565b6130906020830186611ff2565b61309d6040830185612108565b81810360608301526130af8184613035565b905095945050505050565b6000815190506130c981611e1c565b92915050565b6000602082840312156130e5576130e4611de6565b5b60006130f3848285016130ba565b91505092915050565b7f4e487b7100000000000000000000000000000000000000000000000000000000600052601260045260246000fd5b7f4552433732313a206d696e7420746f20746865207a65726f2061646472657373600082015250565b6000613161602083611eb6565b915061316c8261312b565b602082019050919050565b6000602082019050818103600083015261319081613154565b9050919050565b7f4552433732313a20746f6b656e20616c7265616479206d696e74656400000000600082015250565b60006131cd601c83611eb6565b91506131d882613197565b602082019050919050565b600060208201905081810360008301526131fc816131c0565b905091905056fea2646970667358221220c80e363844b57e005ae39f7b9e9a31c49a559e7fc55a593a04eb51507c10669464736f6c63430008130033",
  "linkReferences": {},
  "deployedLinkReferences": {}
}